:020000040800F2
:1000000000500020B50200083F0300084503000827
:100010004B030008510300085703000800000000CC
:100020000000000000000000000000005D03000868
:100030006303000800000000690300086F03000864
:100040007B03000887030008930300089F03000850
:10005000AB030008B7030008C3030008CF03000880
:10006000DB030008E7030008F3030008FF030008B0
:100070000B04000817040008230400082F040008DC
:100080003B04000847040008530400085F0400080C
:100090006B04000877040008830400088F0400083C
:1000A0009B040008A7040008B3040008BF0400086C
:1000B000CB040008D7040008E3040008EF0400089C
:1000C000FB04000807050008130500081F050008C9
:1000D0002B05000837050008430500084F050008F8
:1000E0005B05000867050008730500087F05000828
:1000F0008B05000897050008A3050008AF05000858
:10010000BB050008C7050008D3050008DF05000887
:10011000EB050008F7050008030600080F060008B5
:100120001B06000827060008330600083F060008E3
:100130004B06000857060008630600086F06000813
:100140007B06000887060008930600089F06000843
:10015000AB060008B7060008C3060008CF06000873
:10016000DB060008E7060008F3060008FF060008A3
:100170000B07000817070008230700082F070008CF
:100180003B0700084707000880B400AF0D4B9B6990
:100190000C4A43F0080393610B4B5B680A4A23F453
:1001A00070635360084B5B68074A43F440735360C5
:1001B000054BDB68044A23F48063D36000BFBD466F
:1001C00080BC704700100240000C014080B400AFBA
:1001D0000D4B9B690C4A43F0080393610B4B5B6822
:1001E0000A4A23F470435360084B5B68074A43F4A0
:1001F00040535360054BDB68044A23F40063D3602B
:1002000000BFBD4680BC704700100240000C01409A
:1002100080B400AF044BDB68034A43F48063D360CF
:1002200000BFBD4680BC7047000C014080B400AFE9
:10023000044BDB68034A23F48063D36000BFBD46F0
:1002400080BC7047000C014080B400AF044BDB68F9
:10025000034A43F40063D36000BFBD4680BC7047CF
:10026000000C014080B400AF044BDB68034A23F468
:100270000063D36000BFBD4680BC7047000C0140E6
:1002800080B500AF00F003F80023184680BD80B5AC
:1002900000AF00F073FAFFF777FFFFF7B9FFFFF742
:1002A00095FFFFF7D1FF0121012000F053FA00BFB5
:1002B00080BD000080B586B000AF1A4A1A4BD31A31
:1002C0007B60194B7B61194B3B610023FB600AE0AB
:1002D0003A69531C3B617B69591C796112781A7029
:1002E000FB680133FB60FA687B689A42F0D3104ADE
:1002F000104BD31A7B600F4B7B610023BB6007E080
:100300007B695A1C7A6100221A70BB680133BB609A
:10031000BA687B689A42F3D3FFF7B2FF00BF183781
:10032000BD4680BD040000200400002094070008A2
:10033000040000200400002080B400AFFEE780B479
:1003400000AFFEE780B400AFFEE780B400AFFEE789
:1003500080B400AFFEE780B400AFFEE780B400AF2A
:10036000FEE780B400AFFEE780B400AFFEE780B4E4
:1003700000AF00BFBD4680BC704780B400AF00BF77
:10038000BD4680BC704780B400AF00BFBD4680BC96
:10039000704780B400AF00BFBD4680BC704780B4DA
:1003A00000AF00BFBD4680BC704780B400AF00BF47
:1003B000BD4680BC704780B400AF00BFBD4680BC66
:1003C000704780B400AF00BFBD4680BC704780B4AA
:1003D00000AF00BFBD4680BC704780B400AF00BF17
:1003E000BD4680BC704780B400AF00BFBD4680BC36
:1003F000704780B400AF00BFBD4680BC704780B47A
:1004000000AF00BFBD4680BC704780B400AF00BFE6
:10041000BD4680BC704780B400AF00BFBD4680BC05
:10042000704780B400AF00BFBD4680BC704780B449
:1004300000AF00BFBD4680BC704780B400AF00BFB6
:10044000BD4680BC704780B400AF00BFBD4680BCD5
:10045000704780B400AF00BFBD4680BC704780B419
:1004600000AF00BFBD4680BC704780B400AF00BF86
:10047000BD4680BC704780B400AF00BFBD4680BCA5
:10048000704780B400AF00BFBD4680BC704780B4E9
:1004900000AF00BFBD4680BC704780B400AF00BF56
:1004A000BD4680BC704780B400AF00BFBD4680BC75
:1004B000704780B400AF00BFBD4680BC704780B4B9
:1004C00000AF00BFBD4680BC704780B400AF00BF26
:1004D000BD4680BC704780B400AF00BFBD4680BC45
:1004E000704780B400AF00BFBD4680BC704780B489
:1004F00000AF00BFBD4680BC704780B400AF00BFF6
:10050000BD4680BC704780B400AF00BFBD4680BC14
:10051000704780B400AF00BFBD4680BC704780B458
:1005200000AF00BFBD4680BC704780B400AF00BFC5
:10053000BD4680BC704780B400AF00BFBD4680BCE4
:10054000704780B400AF00BFBD4680BC704780B428
:1005500000AF00BFBD4680BC704780B400AF00BF95
:10056000BD4680BC704780B400AF00BFBD4680BCB4
:10057000704780B400AF00BFBD4680BC704780B4F8
:1005800000AF00BFBD4680BC704780B400AF00BF65
:10059000BD4680BC704780B400AF00BFBD4680BC84
:1005A000704780B400AF00BFBD4680BC704780B4C8
:1005B00000AF00BFBD4680BC704780B400AF00BF35
:1005C000BD4680BC704780B400AF00BFBD4680BC54
:1005D000704780B400AF00BFBD4680BC704780B498
:1005E00000AF00BFBD4680BC704780B400AF00BF05
:1005F000BD4680BC704780B400AF00BFBD4680BC24
:10060000704780B400AF00BFBD4680BC704780B467
:1006100000AF00BFBD4680BC704780B400AF00BFD4
:10062000BD4680BC704780B400AF00BFBD4680BCF3
:10063000704780B400AF00BFBD4680BC704780B437
:1006400000AF00BFBD4680BC704780B400AF00BFA4
:10065000BD4680BC704780B400AF00BFBD4680BCC3
:10066000704780B400AF00BFBD4680BC704780B407
:1006700000AF00BFBD4680BC704780B400AF00BF74
:10068000BD4680BC704780B400AF00BFBD4680BC93
:10069000704780B400AF00BFBD4680BC704780B4D7
:1006A00000AF00BFBD4680BC704780B400AF00BF44
:1006B000BD4680BC704780B400AF00BFBD4680BC63
:1006C000704780B400AF00BFBD4680BC704780B4A7
:1006D00000AF00BFBD4680BC704780B400AF00BF14
:1006E000BD4680BC704780B400AF00BFBD4680BC33
:1006F000704780B400AF00BFBD4680BC704780B477
:1007000000AF00BFBD4680BC704780B400AF00BFE3
:10071000BD4680BC704780B400AF00BFBD4680BC02
:10072000704780B400AF00BFBD4680BC704780B446
:1007300000AF00BFBD4680BC704780B400AF00BFB3
:10074000BD4680BC704780B400AF00BFBD4680BCD2
:10075000704700BF80B483B000AF786039607A68BA
:100760003B689A4202D0044B01221A6000BF0C374A
:10077000BD4680BC704700BF0000002080B400AFC1
:10078000034B00221A6000BFBD4680BC704700BF0B
:040790000000002045
:020000042000DA
:0400000000000000FC
:04000005080002B538
:00000001FF
